:100000000C9462000C948A000C948A000C948A0070
:100010000C948A000C948A000C948A000C948A0038
:100020000C948A000C948A000C948A000C948A0028
:100030000C948A000C948A000C948A000C948A0018
:100040000C949D030C948A000C940D040C94E7030B
:100050000C948A000C948A000C948A000C948A00F8
:100060000C948A000C948A000000000024002700F1
:100070002A0000000000250028002B0000000000DE
:1000800023002600290004040404040404040202DA
:100090000202020203030303030301020408102007
:1000A0004080010204081020010204081020000012
:1000B0000008000201000003040700000000000027
:1000C0000000B40511241FBECFEFD8E0DEBFCDBFC6
:1000D00011E0A0E0B1E0E0E2FCE002C005900D928A
:1000E000AE31B107D9F721E0AEE1B1E001C01D9218
:1000F000A43CB207E1F710E0C2E6D0E004C02197CB
:10010000FE010E940306C136D107C9F70E943F04D1
:100110000C940E060C940000833081F028F481309A
:1001200099F08230A1F008958730A9F08830B9F0B5
:100130008430D1F4809180008F7D03C08091800055
:100140008F7780938000089584B58F7702C084B53F
:100150008F7D84BD08958091B0008F7703C080911A
:10016000B0008F7D8093B0000895CF93DF93282F48
:1001700030E0F901E255FF4F8491F901E656FF4F57
:10018000D491F901EA57FF4FC491CC2391F081112A
:100190000E948C00EC2FF0E0EE0FFF1FE458FF4FA1
:1001A000A591B491EC91ED2381E090E021F480E001
:1001B00002C080E090E0DF91CF9108951F93CF932C
:1001C000DF93282F30E0F901E255FF4F8491F901C8
:1001D000E656FF4FD491F901EA57FF4FC491CC2363
:1001E000C1F0162F81110E948C00EC2FF0E0EE0F71
:1001F000FF1FEE58FF4FA591B4919FB7F8941111CE
:1002000004C08C91D095D82302C0EC91DE2BDC93F6
:100210009FBFDF91CF911F910895CF93DF9390E01F
:10022000FC01E656FF4F2491FC01EA57FF4F8491F1
:10023000882361F190E0880F991FFC01E859FF4F76
:10024000C591D491FC01EE58FF4FA591B491611175
:1002500009C09FB7F8948881209582238883EC9108
:100260002E230BC0623061F49FB7F8948881322F3F
:10027000309583238883EC912E2B2C939FBF06C04F
:100280008FB7F894E8812E2B28838FBFDF91CF9111
:1002900008951F93CF93DF93182FEB0161E00E9425
:1002A0000D01209711F460E004C0CF3FD10539F46F
:1002B00061E0812FDF91CF911F910C94DE00E12F3F
:1002C000F0E0E255FF4FE491E330F9F048F4E1301B
:1002D000B9F0E230A1F584B5806284BDC8BD34C0F8
:1002E000E730E9F0E83019F1E43049F58091800019
:1002F000806280938000D0938B00C0938A0024C0DA
:1003000084B5806884BDC7BD1FC0809180008068AF
:1003100080938000D0938900C093880015C080919D
:10032000B00080688093B000C093B3000DC080918E
:10033000B00080628093B000C093B40005C0C038A4
:10034000D1050CF0B5CFAFCFDF91CF911F910895BC
:100350003FB7F8948091230190912401A091250149
:10036000B091260126B5A89B05C02F3F19F0019634
:10037000A11DB11D3FBFBA2FA92F982F8827820F2B
:10038000911DA11DB11DBC01CD0142E0660F771F7B
:10039000881F991F4A95D1F708958F929F92AF9227
:1003A000BF92CF92DF92EF92FF920E94A8014B0181
:1003B0005C018AE0C82ED12CE12CF12C0E94A8010E
:1003C000DC01CB0188199909AA09BB09883E934031
:1003D000A105B10598F321E0C21AD108E108F1089E
:1003E00088EE880E83E0981EA11CB11CC114D104B4
:1003F000E104F10419F7FF90EF90DF90CF90BF90E8
:10040000AF909F908F900895CF92DF92EF92FF92DE
:100410000F931F93CF93DF936C017A018B01C0E0A0
:10042000D0E0CE15DF0581F0D8016D918D01D601A8
:10043000ED91FC910190F081E02DC6010995892B89
:1004400011F02196EECF7E01C701DF91CF911F9170
:100450000F91FF90EF90DF90CF900895089580E086
:1004600090E00895FC01538D448D252F30E0842FBA
:1004700090E0821B930B541710F0CF9608950197CC
:100480000895FC01918D828D981761F0828DDF01B6
:10049000A80FB11D5D968C91928D9F5F9F73928F77
:1004A00090E008958FEF9FEF0895FC01918D828D6C
:1004B000981731F0828DE80FF11D858D90E0089539
:1004C0008FEF9FEF0895FC01918D228D892F90E091
:1004D000805C9F4F821B91098F739927089587E253
:1004E00091E00E94630221E0892B09F420E0822F31
:1004F0000895FC01848DDF01A80FB11DA35ABF4FE1
:100500002C91848D90E001968F739927848FA68912
:10051000B7892C93A089B1898C91837080648C9366
:10052000938D848D981306C00288F389E02D808115
:100530008F7D80830895EF92FF920F931F93CF9347
:10054000DF93EC0181E0888F9B8D8C8D981305C023
:10055000E889F989808185FD26C0F62E0B8D10E093
:100560000F5F1F4F0F731127E02E8C8DE8120CC008
:100570000FB607FCFACFE889F989808185FFF5CFAE
:10058000CE010E947902F1CF8B8DFE01E80FF11DA3
:10059000E35AFF4FF0829FB7F8940B8FEA89FB89EB
:1005A000808180620AC09FB7F894EE89FF896083DA
:1005B000E889F98980818370806480839FBF81E0AE
:1005C00090E0DF91CF911F910F91FF90EF900895F0
:1005D000CF93DF93EC01888D8823C9F0EA89FB89EA
:1005E000808185FD05C0A889B9898C9186FD0FC0E1
:1005F0000FB607FCF5CF808185FFF2CFA889B989B6
:100600008C9185FFEDCFCE010E947902E7CFDF917B
:10061000CF91089580E090E0892B29F00E946F022D
:1006200081110C94000008958F929F92AF92BF9217
:100630000F931F93CF93DF93CDB7DEB7A1970FB67C
:10064000F894DEBF0FBECDBF19A2423008F44AE0D5
:100650008E010F5D1F4F842E912CA12CB12CA50172
:1006600094010E94E105E62FB901CA010150110968
:10067000EA3014F4E05D01C0E95CD801EC93232B6F
:10068000242B252B61F70115110571F0F80101905C
:100690000020E9F73197AF01401B510BB80187E209
:1006A00091E00E94040202C080E090E0A1960FB6A3
:1006B000F894DEBF0FBECDBFDF91CF911F910F9198
:1006C000BF90AF909F908F900895CF92DF92EF925E
:1006D000FF92CF93DF936C01990FEE08FF08F7FEAE
:1006E00013C06DE287E291E00E949B02EC01662755
:1006F0007727CB016C197D098E099F094AE00E947A
:100700001403C80FD91F06C04AE0C701B6010E94F2
:100710001403EC0142E050E06AE171E087E291E00D
:100720000E9404028C0F9D1FDF91CF91FF90EF90EC
:10073000DF90CF9008950E9409061F920F920FB686
:100740000F9211242F933F938F939F93AF93BF9357
:1007500080911F0190912001A0912101B09122016F
:1007600030911E0123E0230F2D3720F40196A11DA7
:10077000B11D05C026E8230F0296A11DB11D2093CF
:100780001E0180931F0190932001A0932101B0933B
:1007900022018091230190912401A0912501B09123
:1007A00026010196A11DB11D809323019093240180
:1007B000A0932501B0932601BF91AF919F918F9196
:1007C0003F912F910F900FBE0F901F9018951F9281
:1007D0000F920FB60F9211242F933F934F935F9375
:1007E0006F937F938F939F93AF93BF93EF93FF93F9
:1007F00087E291E00E947902FF91EF91BF91AF9162
:100800009F918F917F916F915F914F913F912F9128
:100810000F900FBE0F901F9018951F920F920FB65A
:100820000F9211242F938F939F93EF93FF93E09157
:100830003701F09138018081E0913D01F0913E0156
:1008400082FD12C09081809140018F5F8F73209153
:100850004101821751F0E0914001F0E0E95DFE4F67
:10086000958F8093400101C08081FF91EF919F910E
:100870008F912F910F900FBE0F901F901895789425
:1008800084B5826084BD84B5816084BD85B5826095
:1008900085BD85B5816085BD80916E008160809346
:1008A0006E001092810080918100826080938100AF
:1008B00080918100816080938100809180008160BF
:1008C000809380008091B10084608093B10080911A
:1008D000B00081608093B00080917A008460809342
:1008E0007A0080917A00826080937A0080917A0009
:1008F000816080937A0080917A00806880937A008A
:100900001092C10061E0809102010E940D0161E03E
:10091000809100010E940D0160E082E00E940D01C3
:1009200060E084E00E940D0160E087E00E940D011C
:1009300060E088E00E940D01E0913701F0913801FC
:1009400082E08083E0913301F09134011082E091E4
:100950003501F09136018FEC808310923F01E091D8
:100960003B01F0913C0186E08083E0913901F091F8
:100970003A01808180618083E0913901F0913A01F0
:10098000808188608083E0913901F0913A01808113
:1009900080688083E0913901F0913A0180818F7DF8
:1009A000808382E00E94B5008C0184E00E94B50043
:1009B000EC0187E00E94B5006C0188E00E94B50060
:1009C0007C01C8010E946503CE010E946503C60137
:1009D0000E946503C7010E94650380910601909102
:1009E00007010E9465038091040190910501013087
:1009F000110571F5892B89F060E070E080910201AA
:100A00000E94490160E070E0809100010E9449016C
:100A1000109205011092040112C0609106017091BC
:100A20000701809102010E94490160E070E080911D
:100A300000010E944901109305010093040182E026
:100A40000E94B500019709F08CC00E94CD01F7CF3C
:100A5000CA94CD2829F58130910509F047C0C0918D
:100A60000601D0910701CA30D1050CF47AC02A974B
:100A7000BE01809102010E94490160E070E0809116
:100A800000010E944901D0930701C093060187E04D
:100A90000E94B500019709F064C00E94CD01F7CF14
:100AA000219731F58130910509F04BC0C0910601C5
:100AB000D0910701C63FD1050CF053C02A96BE0164
:100AC000809102010E94490160E070E08091000184
:100AD0000E944901D0930701C093060184E00E945F
:100AE000B5000197F1F50E94CD01F8CF219749F1AA
:100AF000EA94EF2831F58130910519F5C091020192
:100B000090910301809100012091010180930201E5
:100B100020930301C09300019093010160910601AD
:100B2000709107010E94490160E070E08C2F0E94E3
:100B3000490188E00E94B500019799F40E94CD0117
:100B4000F8CF892B71F060910601709107018091B7
:100B500002010E94490160E070E0809100010E9462
:100B600049010E940A031DCFE7E2F1E013821282DD
:100B700088EE93E0A0E0B0E084839583A683B783FA
:100B80008CE091E09183808385EC90E09587848769
:100B900084EC90E09787868780EC90E0918B808B47
:100BA00081EC90E0938B828B82EC90E0958B848B30
:100BB00086EC90E0978B868B118E128E138E148E9E
:100BC0000895A1E21A2EAA1BBB1BFD010DC0AA1F8E
:100BD000BB1FEE1FFF1FA217B307E407F50720F0A6
:100BE000A21BB30BE40BF50B661F771F881F991F21
:100BF0001A9469F760957095809590959B01AC016A
:100C0000BD01CF010895EE0FFF1F0590F491E02D77
:100C1000099481E090E0F8940C940E06F894FFCFCC
:100C20000A000B000100FF00000000009B0204020C
:0E0C30003202E8026302410255020D0A000082
:00000001FF
