:100000000C946C000C9494000C9494000C94940048
:100010000C9494000C9494000C9494000C94940010
:100020000C9494000C9494000C9494000C94940000
:100030000C9494000C9494000C9494000C949400F0
:100040000C94C1030C9494000C9431040C940B0494
:100050000C9494000C9494000C9494000C949400D0
:100060000C9494000C94940097019E01AA01BB018A
:10007000BD01C401D001E101F701F9010000000058
:10008000240027002A0000000000250028002B0083
:1000900000000000230026002900040404040404D6
:1000A0000404020202020202030303030303010227
:1000B00004081020408001020408102001020408F6
:1000C00010200000000800020100000304070000E7
:1000D000000000000000630411241FBECFEFD8E031
:1000E000DEBFCDBF11E0A0E0B1E0E8E8FDE002C076
:1000F00005900D92A231B107D9F721E0A2E1B1E05C
:1001000001C01D92A83DB207E1F710E0CCE6D0E0B7
:1001100004C02197FE010E948106CB36D107C9F7A2
:100120000E94C8040C94C2060C940000833081F035
:1001300028F4813099F08230A1F008958730A9F039
:100140008830B9F08430D1F4809180008F7D03C075
:10015000809180008F7780938000089584B58F7799
:1001600002C084B58F7D84BD08958091B0008F77E3
:1001700003C08091B0008F7D8093B0000895CF932D
:10018000DF93282F30E0F901EE53FF4F8491F901FE
:10019000E255FF4FD491F901E656FF4FC491CC23AD
:1001A00091F081110E949600EC2FF0E0EE0FFF1FFE
:1001B000E057FF4FA591B491EC91ED2381E090E0E1
:1001C00021F480E002C080E090E0DF91CF910895BB
:1001D0001F93CF93DF93282F30E0F901EE53FF4FA9
:1001E0008491F901E255FF4FD491F901E656FF4F92
:1001F000C491CC23C1F0162F81110E949600EC2FE0
:10020000F0E0EE0FFF1FEA57FF4FA591B4919FB7A3
:10021000F894111104C08C91D095D82302C0EC91B0
:10022000DE2BDC939FBFDF91CF911F910895CF9379
:10023000DF93EC018091C6019091C701029709F507
:10024000C130D10569F024F42097D9F460E009C0E9
:10025000C230D10561F0C330D10599F460E008C027
:1002600061E08091CA010E94E80061E006C061E09F
:100270008091CA010E94E80060E08091CC010E9458
:10028000E8008091C6019091C701049709F03FC032
:10029000C130D105B9F04CF42097C9F561E08091E7
:1002A000CA010E94E80060E013C0C230D105D9F055
:1002B000C330D10561F561E08091CA010E94E80078
:1002C00060E017C060E08091CA010E94E80061E030
:1002D0008091CC010E94E80061E08091CE010E94F3
:1002E000E80060E010C060E08091CA010E94E80070
:1002F00061E08091CC010E94E80060E08091CE0135
:100300000E94E80061E08091D0010E94E8008091A5
:10031000C6019091C701059709F086C0CA30D10582
:1003200008F082C0FE01EC5CFF4F0C94810660E097
:100330008091CA010E94E80061E061C060E08091A4
:10034000CA010E94E80061E08091CC010E94E800AF
:1003500060E05AC060E08091CA010E94E80061E05C
:100360008091CC010E94E80060E08091CE010E9463
:10037000E80061E04EC060E001C061E08091CA0128
:100380000E94E80061E006C061E08091CA010E941D
:10039000E80060E08091CC010E94E80060E00BC0C2
:1003A00061E08091CA010E94E80060E08091CC0188
:1003B0000E94E80061E08091CE010E94E80061E0C7
:1003C00010C061E08091CA010E94E80060E0809165
:1003D000CC010E94E80061E08091CE010E94E8001B
:1003E00060E08091D0010E94E80060E017C061E009
:1003F00001C060E08091CA010E94E80060E0809145
:10040000CC010E94E80061E08091CE010E94E800EA
:1004100060E08091D0010E94E80061E08091D2010B
:10042000DF91CF910C94E800DF91CF910895CF93A5
:10043000DF9390E0FC01E255FF4F2491FC01E6566A
:10044000FF4F8491882361F190E0880F991FFC0190
:10045000E458FF4FC591D491FC01EA57FF4FA59195
:10046000B491611109C09FB7F894888120958223C7
:100470008883EC912E230BC0623061F49FB7F8940F
:100480008881322F309583238883EC912E2B2C93F7
:100490009FBF06C08FB7F894E8812E2B28838FBFAB
:1004A000DF91CF9108953FB7F89480911D0190910D
:1004B0001E01A0911F01B091200126B5A89B05C087
:1004C0002F3F19F00196A11DB11D3FBFBA2FA92FD3
:1004D000982F8827820F911DA11DB11DBC01CD0150
:1004E00042E0660F771F881F991F4A95D1F708953C
:1004F0008F929F92AF92BF92CF92DF92EF92FF9234
:100500000E9453024B015C018AE0C82ED12CE12CE1
:10051000F12C0E945302DC01CB0188199909AA0928
:10052000BB09883E9340A105B10598F321E0C21AAA
:10053000D108E108F10888EE880E83E0981EA11C1E
:10054000B11CC114D104E104F10419F7FF90EF903C
:10055000DF90CF90BF90AF909F908F900895CF92F3
:10056000DF92EF92FF920F931F93CF93DF936C0173
:100570007A018B01C0E0D0E0CE15DF0581F0D80113
:100580006D918D01D601ED91FC910190F081E02DEE
:10059000C6010995892B11F02196EECF7E01C70186
:1005A000DF91CF911F910F91FF90EF90DF90CF904F
:1005B0000895089580E090E00895FC01538D448DE6
:1005C000252F30E0842F90E0821B930B541710F0FE
:1005D000CF96089501970895FC01918D828D98170B
:1005E00061F0828DDF01A80FB11D5D968C91928D17
:1005F0009F5F9F73928F90E008958FEF9FEF089514
:10060000FC01918D828D981731F0828DE80FF11DDC
:10061000858D90E008958FEF9FEF0895FC01918DF7
:10062000228D892F90E0805C9F4F821B91098F73F0
:100630009927089581E291E00E940E0321E0892B21
:1006400009F420E0822F0895FC01848DDF01A80FBA
:10065000B11DA35ABF4F2C91848D90E001968F73EA
:100660009927848FA689B7892C93A089B1898C9109
:10067000837080648C93938D848D981306C0028858
:10068000F389E02D80818F7D80830895EF92FF9222
:100690000F931F93CF93DF93EC0181E0888F9B8DA5
:1006A0008C8D981305C0E889F989808185FD26C065
:1006B000F62E0B8D10E00F5F1F4F0F731127E02EEA
:1006C0008C8DE8120CC00FB607FCFACFE889F989C7
:1006D000808185FFF5CFCE010E942403F1CF8B8D61
:1006E000FE01E80FF11DE35AFF4FF0829FB7F89427
:1006F0000B8FEA89FB89808180620AC09FB7F894DA
:10070000EE89FF896083E889F9898081837080643C
:1007100080839FBF81E090E0DF91CF911F910F9187
:10072000FF90EF900895CF93DF93EC01888D88239D
:10073000C9F0EA89FB89808185FD05C0A889B9894E
:100740008C9186FD0FC00FB607FCF5CF808185FF29
:10075000F2CFA889B9898C9185FFEDCFCE010E9497
:100760002403E7CFDF91CF91089580E090E0892BBB
:1007700029F00E941A0381110C94000008950E9430
:10078000BD061F920F920FB60F9211242F933F9325
:100790008F939F93AF93BF938091190190911A010A
:1007A000A0911B01B0911C013091180123E0230F8F
:1007B0002D3720F40196A11DB11D05C026E8230F99
:1007C0000296A11DB11D20931801809319019093E9
:1007D0001A01A0931B01B0931C0180911D019091FF
:1007E0001E01A0911F01B09120010196A11DB11D14
:1007F00080931D0190931E01A0931F01B0932001CF
:10080000BF91AF919F918F913F912F910F900FBE0C
:100810000F901F9018951F920F920FB60F921124F0
:100820002F933F934F935F936F937F938F939F93F8
:10083000AF93BF93EF93FF9381E291E00E94240373
:10084000FF91EF91BF91AF919F918F917F916F91A8
:100850005F914F913F912F910F900FBE0F901F907E
:1008600018951F920F920FB60F9211242F938F930A
:100870009F93EF93FF93E0913101F09132018081DA
:10088000E0913701F091380182FD12C09081809192
:100890003A018F5F8F7320913B01821751F0E091F5
:1008A0003A01F0E0EF5DFE4F958F80933A0101C071
:1008B0008081FF91EF919F918F912F910F900FBEAB
:1008C0000F901F901895CF93DF93E1E2F1E0138230
:1008D000128288EE93E0A0E0B0E084839583A68343
:1008E000B78384E091E09183808385EC90E09587E5
:1008F000848784EC90E09787868780EC90E0918BEA
:10090000808B81EC90E0938B828B82EC90E0958BD6
:10091000848B86EC90E0978B868B118E128E138ED3
:10092000148ECEEBD1E01B861A86198218821E8A9D
:100930001F8A188E198E82E190E09F838E8386E055
:1009400090E09D878C8789E090E09F878E878AE082
:1009500090E0998B888B8BE090E09B8B8A8B61E099
:1009600086E00E94170261E08E850E94170261E016
:1009700088890E94170261E08A890E9417021D8AF5
:100980001C8A84E090E099878887DF91CF91089551
:10099000789484B5826084BD84B5816084BD85B55A
:1009A000826085BD85B5816085BD80916E00816066
:1009B00080936E001092810080918100826080930C
:1009C000810080918100816080938100809180000E
:1009D0008160809380008091B10084608093B10039
:1009E0008091B00081608093B00080917A00846033
:1009F00080937A0080917A00826080937A0080915F
:100A00007A00816080937A0080917A008068809378
:100A10007A001092C10060E082E00E94170260E05C
:100A200084E00E94170260E087E00E941702209194
:100A3000C4013091C501032E000C440B550B60E03E
:100A400077E883E993E00E946206CA01B90124E1D4
:100A500030E040E050E00E9462062093C0013093F5
:100A6000C1014093C2015093C30181E090E0909393
:100A7000130180931201E0913101F091320182E083
:100A80008083E0912D01F0912E011082E0912F01E1
:100A9000F09130018FEC808310923901E0913501A3
:100AA000F091360186E08083E0913301F0913401CA
:100AB000808180618083E0913301F09134018081F5
:100AC00088608083E0913301F091340180818068F7
:100AD0008083E0913301F091340180818F7D8083A8
:100AE0000FEF1FEFEE24E394F12C94E0C92ED12CEC
:100AF0002AE0A22EB12C82E00E94BF00EC0190936C
:100B000017018093160184E00E94BF004C0190936E
:100B100015018093140187E00E94BF00C130D10508
:100B200099F480911201909113011816190624F07E
:100B3000D0931301C093120182E00E94BF0001977D
:100B400031F50E947802F8CF8A94892891F4809137
:100B500012019091130197FD04C0109313010093AB
:100B6000120184E00E94BF00019789F40E9478027C
:100B7000F8CF019761F4109213011092120187E0EF
:100B80000E94BF00019719F40E947802F8CF80916B
:100B9000120190911301EC0197FF04C0CC27DD27CF
:100BA000C81BD90B181619062CF4F092BF01E0925D
:100BB000BE0106C0892B21F01092BF011092BE0128
:100BC000209709F468C00E9453024090D4015090CD
:100BD000D5016090D6017090D7019B01AC0124191A
:100BE0003509460957094090C0015090C1016090F5
:100BF000C2017090C301241535054605570500F361
:100C00006093D4017093D5018093D6019093D7015E
:100C10002091BE013091BF018091C8019091C9011E
:100C20002130310589F401969093C9018093C80160
:100C30002091C4013091C50182179307C1F410922D
:100C4000C9011092C80113C0892B41F48091C401DD
:100C50009091C5019093C9018093C8018091C8010A
:100C60009091C90101979093C9018093C801219780
:100C70002091C6013091C7018091C8019091C901AE
:100C80002530310511F4B50101C0B6010E944E06B0
:100C90000E94170195CF0E94B5032DCF97FB072E19
:100CA00016F4009407D077FD09D00E94870607FC50
:100CB00005D03EF4909581959F4F0895709561956C
:100CC0007F4F0895052E97FB1EF400940E9479062D
:100CD00057FD07D00E949B0607FC03D04EF40C94EE
:100CE000790650954095309521953F4F4F4F5F4F76
:100CF000089590958095709561957F4F8F4F9F4F88
:100D00000895EE0FFF1F0590F491E02D0994AA1BA2
:100D1000BB1B51E107C0AA1FBB1FA617B70710F0E6
:100D2000A61BB70B881F991F5A95A9F78095909518
:100D3000BC01CD010895A1E21A2EAA1BBB1BFD0127
:100D40000DC0AA1FBB1FEE1FFF1FA217B307E407AA
:100D5000F50720F0A21BB30BE40BF50B661F771F02
:100D6000881F991F1A9469F76095709580959095E2
:100D70009B01AC01BD01CF01089581E090E0F894A2
:080D80000C94C206F894FFCFA9
:100D8800000000004603AF02DD0293030E03EC02ED
:020D9800000356
:00000001FF
