:100000000C9467000C9484000C9484000C9484007D
:100010000C9484000C9484000C9484000C94840050
:100020000C9484000C9484000C9484000C94840040
:100030000C9484000C9484000C9484000C94840030
:100040000C9409020C9484000C9484000C94840099
:100050000C9484000C9484000C9484000C94840010
:100060000C9484000C94840072017901850196013E
:1000700098019F01AB01BC01D201D401000000082E
:10008000000201000003040700000000000000005F
:1000900000000000250028002B00000000002400C4
:1000A00027002A00040404040404040402020202D7
:1000B000020203030303030301020408102040802B
:1000C000010204081020010204081020AA031124D0
:1000D0001FBECFEFD8E0DEBFCDBF21E0A0E0B1E092
:1000E00001C01D92A932B207E1F710E0C7E6D0E0E7
:1000F00004C02197FE010E941204C636D107C9F739
:100100000E9453020C944E040C94000090E0FC01F9
:10011000E854FF4F2491FC01EC55FF4F8491882354
:1001200099F090E0880F991FFC01E656FF4FA591CA
:10013000B491FC01E057FF4F859194918FB7F894EB
:10014000EC91E22BEC938FBF089590E0FC01E45812
:10015000FF4F2491FC01E854FF4F3491FC01EC5512
:10016000FF4FE491EE2309F43CC0222339F1233000
:1001700091F038F42130A9F0223001F584B58F7D5B
:1001800012C0273091F02830A1F02430B9F48091CA
:1001900080008F7D03C0809180008F7780938000E6
:1001A0000DC084B58F7784BD09C08091B0008F7772
:1001B00003C08091B0008F7D8093B000F0E0EE0F1F
:1001C000FF1FE057FF4FA591B4919FB7F8946111BD
:1001D00004C08C913095382302C0EC913E2B3C93A7
:1001E0009FBF0895CF93DF93EC0180911701909109
:1001F0001801029709F5C130D10569F024F4209760
:10020000D9F460E009C0C230D10561F0C330D10536
:1002100099F460E008C061E080911B010E94A50094
:1002200061E006C061E080911B010E94A50060E0D2
:1002300080911D010E94A5008091170190911801E5
:10024000049709F03FC0C130D105B9F04CF42097B4
:10025000C9F561E080911B010E94A50060E013C018
:10026000C230D105D9F0C330D10561F561E080918C
:100270001B010E94A50060E017C060E080911B0197
:100280000E94A50061E080911D010E94A50061E02F
:1002900080911F010E94A50060E010C060E0809185
:1002A0001B010E94A50061E080911D010E94A50034
:1002B00060E080911F010E94A50061E08091210112
:1002C0000E94A5008091170190911801059709F0EF
:1002D00086C0CA30D10508F082C0FE01EC5CFF4F39
:1002E0000C94120460E080911B010E94A50061E063
:1002F00061C060E080911B010E94A50061E08091D7
:100300001D010E94A50060E05AC060E080911B01C1
:100310000E94A50061E080911D010E94A50060E09F
:1003200080911F010E94A50061E04EC060E001C005
:1003300061E080911B010E94A50061E006C061E0C0
:1003400080911B010E94A50060E080911D010E9428
:10035000A50060E00BC061E080911B010E94A50038
:1003600060E080911D010E94A50061E080911F0165
:100370000E94A50061E010C061E080911B010E9415
:10038000A50060E080911D010E94A50061E08091C0
:100390001F010E94A50060E0809121010E94A5003C
:1003A00060E017C061E001C060E080911B010E9425
:1003B000A50060E080911D010E94A50061E0809190
:1003C0001F010E94A50060E0809121010E94A5000C
:1003D00061E080912301DF91CF910C94A500DF9122
:1003E000CF9108958E3008F08E508770806480938E
:1003F0007C0080917A00806480937A0080917A00FA
:1004000086FDFCCF809178002091790090E0922BBE
:1004100008951F920F920FB60F9211242F933F93BE
:100420008F939F93AF93BF9380910B0190910C0199
:10043000A0910D01B0910E0130910A0123E0230F2C
:100440002D3720F40196A11DB11D05C026E8230F0C
:100450000296A11DB11D20930A0180930B01909378
:100460000C01A0930D01B0930E01809106019091B3
:100470000701A0910801B09109010196A11DB11DCC
:100480008093060190930701A0930801B09309019E
:10049000BF91AF919F918F913F912F910F900FBE80
:1004A0000F901F901895789484B5826084BD84B5B0
:1004B000816084BD85B5826085BD85B5816085BD5F
:1004C00080916E00816080936E0010928100809117
:1004D000810082608093810080918100816080939F
:1004E0008100809180008160809380008091B100C4
:1004F00084608093B1008091B00081608093B000EF
:1005000080917A00846080937A0080917A00826082
:1005100080937A0080917A00816080937A00809144
:100520007A00806880937A001092C10020911501B2
:1005300030911601032E000C440B550B60E077E858
:1005400083E993E00E94F303CA01B90128EC30E08B
:1005500040E050E00E94F303209311013093120118
:10056000409313015093140180E490E090930101B3
:100570008093000154E0652E712C0AE010E060E0E9
:10058000E62E60E0F62E70ECC72EDD24DA94AA2465
:10059000A394B12C80E10E94F2014C0190930501DB
:1005A000809304018FE00E94F201EC01909303011B
:1005B000809302018EE00E94F201811422E09206F3
:1005C00059F0809100019091010197FF17C0D092DE
:1005D0000101C092000112C0C115D24041F08091CA
:1005E000000190910101181619068CF307C08115BE
:1005F000924021F0109201011092000180910001BF
:1006000090910101EC0197FF04C0CC27DD27C81BA6
:10061000D90B181619062CF4B0921001A0920F01F4
:1006200006C0892B21F01092100110920F01209723
:1006300009F489C03FB7F8948091060190910701B1
:10064000A0910801B091090126B5A89B05C02F3FD4
:1006500019F00196A11DB11D3FBFBA2FA92F982FE8
:100660008827820F911DA11DB11D42E0880F991F9F
:10067000AA1FBB1F4A95D1F7409125015091260131
:1006800060912701709128011C012D01241A350A5F
:10069000460A570A409111015091120160911301CD
:1006A00070911401241635064606570608F4BFCF8C
:1006B0008093250190932601A0932701B0932801F0
:1006C00020910F01309110018091190190911A0130
:1006D0002130310589F4019690931A018093190114
:1006E000209115013091160182179307C1F41092E1
:1006F0001A011092190113C0892B41F48091150140
:100700009091160190931A0180931901809119011B
:1007100090911A01019790931A01809319012197E2
:1007200020911701309118018091190190911A01BF
:100730002530310511F4B80101C0B3010E94DF0377
:100740000E94F20074CFE114F10409F423CF0E9457
:10075000000020CFCF93DF93CFE0D1E01B861A8635
:10076000198218821E8A1F8A188E198E84E290E0E0
:100770009F838E8388E090E09D878C878AE090E05D
:100780009F878E8789E090E0998B888B8BE090E043
:100790009B8B8A8B88E00E9486008E850E94860053
:1007A00088890E9486008A890E9486001D8A1C8A88
:1007B00084E090E099878887DF91CF91089597FB37
:1007C000072E16F4009407D077FD09D00E94180474
:1007D00007FC05D03EF4909581959F4F0895709544
:1007E00061957F4F0895052E97FB1EF400940E949B
:1007F0000A0457FD07D00E942C0407FC03D04EF4D6
:100800000C940A0450954095309521953F4F4F4FD9
:100810005F4F089590958095709561957F4F8F4FAC
:100820009F4F0895EE0FFF1F0590F491E02D09945E
:10083000AA1BBB1B51E107C0AA1FBB1FA617B70706
:1008400010F0A61BB70B881F991F5A95A9F7809522
:100850009095BC01CD010895A1E21A2EAA1BBB1BE5
:10086000FD010DC0AA1FBB1FEE1FFF1FA217B3077C
:10087000E407F50720F0A21BB30BE40BF50B661F92
:10088000771F881F991F1A9469F760957095809556
:1008900090959B01AC01BD01CF010895F894FFCF65
:00000001FF
