:100000000C9462000C948A000C948A000C948A0070
:100010000C948A000C948A000C948A000C948A0038
:100020000C948A000C948A000C948A000C94AA0305
:100030000C948A000C948A000C948A000C948A0018
:100040000C9408030C948A000C9478030C945203CB
:100050000C948A000C948A000C948A000C948A00F8
:100060000C948A000C948A000000000024002700F1
:100070002A0000000000250028002B0000000000DE
:1000800023002600290004040404040404040202DA
:100090000202020203030303030301020408102007
:1000A0004080010204081020010204081020000012
:1000B0000008000201000003040700000000000027
:1000C00000006B0411241FBECFEFD8E0DEBFCDBF10
:1000D00011E0A0E0B1E0E6EEFDE002C005900D9277
:1000E000A831B107D9F721E0A8E1B1E001C01D9224
:1000F000A73EB207E1F710E0C2E6D0E004C02197C6
:10010000FE010E94E606C136D107C9F70E94C90464
:100110000C94F1060C940000833081F028F48130B7
:1001200099F08230A1F008958730A9F08830B9F0B5
:100130008430D1F4809180008F7D03C08091800055
:100140008F7780938000089584B58F7702C084B53F
:100150008F7D84BD08958091B0008F7703C080911A
:10016000B0008F7D8093B0000895CF93DF93282F48
:1001700030E0F901E255FF4F8491F901E656FF4F57
:10018000D491F901EA57FF4FC491CC2391F081112A
:100190000E948C00EC2FF0E0EE0FFF1FE458FF4FA1
:1001A000A591B491EC91ED2381E090E021F480E001
:1001B00002C080E090E0DF91CF9108951F93CF932C
:1001C000DF93282F30E0F901E255FF4F8491F901C8
:1001D000E656FF4FD491F901EA57FF4FC491CC2363
:1001E000C1F0162F81110E948C00EC2FF0E0EE0F71
:1001F000FF1FEE58FF4FA591B4919FB7F8941111CE
:1002000004C08C91D095D82302C0EC91DE2BDC93F6
:100210009FBFDF91CF911F910895CF93DF9390E01F
:10022000FC01E656FF4F2491FC01EA57FF4F8491F1
:10023000882361F190E0880F991FFC01E859FF4F76
:10024000C591D491FC01EE58FF4FA591B491611175
:1002500009C09FB7F8948881209582238883EC9108
:100260002E230BC0623061F49FB7F8948881322F3F
:10027000309583238883EC912E2B2C939FBF06C04F
:100280008FB7F894E8812E2B28838FBFDF91CF9111
:1002900008953FB7F89480911E0190911F01A0919D
:1002A0002001B091210126B5A89B05C02F3F19F070
:1002B0000196A11DB11D3FBFBA2FA92F982F8827E6
:1002C000820F911DA11DB11DBC01CD0142E0660F41
:1002D000771F881F991F4A95D1F708958F929F9293
:1002E000AF92BF92CF92DF92EF92FF920E944901AC
:1002F0004B015C018AE0C82ED12CE12CF12C0E942C
:100300004901DC01CB0188199909AA09BB09883E7A
:100310009340A105B10598F321E0C21AD108E10884
:10032000F10888EE880E83E0981EA11CB11CC11450
:10033000D104E104F10419F7FF90EF90DF90CF9022
:10034000BF90AF909F908F900895CF92DF92EF92E1
:10035000FF920F931F93CF93DF936C017A018B0170
:10036000C0E0D0E0CE15DF0581F0D8016D918D01A0
:10037000D601ED91FC910190F081E02DC601099527
:10038000892B11F02196EECF7E01C701DF91CF912D
:100390001F910F91FF90EF90DF90CF9008950895F7
:1003A00080E090E00895FC01538D448D252F30E0CE
:1003B000842F90E0821B930B541710F0CF96089572
:1003C00001970895FC01918D828D981761F0828DBF
:1003D000DF01A80FB11D5D968C91928D9F5F9F7379
:1003E000928F90E008958FEF9FEF0895FC01918D1B
:1003F000828D981731F0828DE80FF11D858D90E088
:1004000008958FEF9FEF0895FC01918D228D892F24
:1004100090E0805C9F4F821B91098F73992708950C
:1004200082E291E00E94040221E0892B09F420E09D
:10043000822F0895FC01848DDF01A80FB11DA35AFE
:10044000BF4F2C91848D90E001968F739927848FF4
:10045000A689B7892C93A089B1898C918370806417
:100460008C93938D848D981306C00288F389E02DB8
:1004700080818F7D80830895EF92FF920F931F9369
:10048000CF93DF93EC0181E0888F9B8D8C8D981347
:1004900005C0E889F989808185FD26C0F62E0B8D7F
:1004A00010E00F5F1F4F0F731127E02E8C8DE812A5
:1004B0000CC00FB607FCFACFE889F989808185FF67
:1004C000F5CFCE010E941A02F1CF8B8DFE01E80F0D
:1004D000F11DE35AFF4FF0829FB7F8940B8FEA8922
:1004E000FB89808180620AC09FB7F894EE89FF89FA
:1004F0006083E889F98980818370806480839FBFED
:1005000081E090E0DF91CF911F910F91FF90EF90EC
:100510000895CF93DF93EC01888D8823C9F0EA8991
:10052000FB89808185FD05C0A889B9898C9186FDEC
:100530000FC00FB607FCF5CF808185FFF2CFA889E9
:10054000B9898C9185FFEDCFCE010E941A02E7CFC9
:10055000DF91CF91089580E090E0892B29F00E94EF
:10056000100281110C94000008958F929F92AF9217
:10057000BF920F931F93CF93DF93CDB7DEB7A197B1
:100580000FB6F894DEBF0FBECDBF19A2423008F4FB
:100590004AE08E010F5D1F4F842E912CA12CB12CAF
:1005A000A50194010E94A906E62FB901CA010150D4
:1005B0001109EA3014F4E05D01C0E95CD801EC9364
:1005C000232B242B252B61F70115110571F0F80160
:1005D00001900020E9F73197AF01401B510BB801A2
:1005E00082E291E00E94A50102C080E090E0A19625
:1005F0000FB6F894DEBF0FBECDBFDF91CF911F9134
:100600000F91BF90AF909F908F9008950E94EC063D
:100610001F920F920FB60F9211242F933F938F9337
:100620009F93AF93BF9380911A0190911B01A0916A
:100630001C01B0911D013091190123E0230F2D37CA
:1006400020F40196A11DB11D05C026E8230F0296D6
:10065000A11DB11D2093190180931A0190931B01D4
:10066000A0931C01B0931D0180911E0190911F0168
:10067000A0912001B09121010196A11DB11D80938F
:100680001E0190931F01A0932001B0932101BF91FF
:10069000AF919F918F913F912F910F900FBE0F902F
:1006A0001F9018951F920F920FB60F9211242F933F
:1006B0003F934F935F936F937F938F939F93AF93EA
:1006C000BF93EF93FF9382E291E00E941A02FF91A1
:1006D000EF91BF91AF919F918F917F916F915F91BA
:1006E0004F913F912F910F900FBE0F901F90189533
:1006F0001F920F920FB60F9211242F938F939F93F7
:10070000EF93FF93E0913201F09133018081E0910A
:100710003801F091390182FD12C0908180913B0136
:100720008F5F8F7320913C01821751F0E0913B0164
:10073000F0E0EE5DFE4F958F80933B0101C080811C
:10074000FF91EF919F918F912F910F900FBE0F907E
:100750001F9018951F920F920FB60F9211242F938E
:100760003F934F935F936F937F938F939F93AF9339
:10077000BF93EF93FF938091180187FF05C01092FC
:100780008500109284001BC020911801022E000CDD
:10079000330B8091E30190E02817390784F48091AE
:1007A0001801082E000C990BFC01EE0FFF1F8E0F95
:1007B0009F1FFC01E154FE4F808186FD15C0809192
:1007C00018018F5F8093180120911801022E000CF0
:1007D000330B8091E30190E028173907C4F480912E
:1007E00018018C3064F113C080911801082E000CA0
:1007F000990BFC01EE0FFF1F8E0F9F1FFC01E154B0
:10080000FE4F808160E08F730E94DE00D8CF809120
:10081000840090918500049680349C4918F480E40B
:100820009CE905C080918400909185000496909386
:100830008900809388008FEF809318013BC020913E
:1008400084003091850080911801082E000C990BCE
:10085000FC01EE0FFF1F8E0F9F1FFC01E154FE4FA6
:1008600081819281820F931F9093890080938800E9
:1008700080911801082E000C990BFC01EE0FFF1F50
:100880008E0F9F1FFC01E154FE4F808186FF12C036
:1008900080911801082E000C990BFC01EE0FFF1F30
:1008A0008E0F9F1FFC01E154FE4F808161E08F732A
:1008B0000E94DE00FF91EF91BF91AF919F918F91C8
:1008C0007F916F915F914F913F912F910F900FBE4C
:1008D0000F901F901895109225011092240188EE18
:1008E00093E0A0E0B0E08093260190932701A093CD
:1008F0002801B093290186E091E090932301809331
:10090000220185EC90E090932F0180932E0184ECDE
:1009100090E0909331018093300180EC90E09093CF
:1009200033018093320181EC90E090933501809304
:10093000340182EC90E0909337018093360186EC8D
:1009400090E0909339018093380110923B0110920E
:100950003C0110923D0110923E018091E3018C30E8
:10096000A0F491E0980F9093E3018093E40190E06C
:10097000FC01EE0FFF1F8E0F9F1FFC01E154FE4F85
:1009800088EB9BE09283818308958FEF8093E4014D
:100990000895789484B5826084BD84B5816084BDF7
:1009A00085B5826085BD85B5816085BD80916E000D
:1009B000816080936E00109281008091810082603E
:1009C000809381008091810081608093810080917B
:1009D00080008160809380008091B100846080936A
:1009E000B1008091B00081608093B00080917A0066
:1009F000846080937A0080917A00826080937A008C
:100A000080917A00816080937A0080917A0080687A
:100A100080937A001092C10060E082E00E940D0194
:100A200060E082E00E940D0161E089E00E940D011A
:100A30008091E4018C3008F051C061E089E00E94AF
:100A40000D018091E401E82FF0E09F01220F331F98
:100A5000E20FF31FE154FE4F9081907C99609083E8
:100A60001092E5011092E6016CE00E94DA069CE02B
:100A7000899FB001112440E050E09B01240F351FF5
:100A8000F901EE0FFF1F2E0F3F1FF901E154FE4F3A
:100A9000908196FD16C04F5F5F4F4C30510569F74E
:100AA00081110FC01092800082E08093810010922B
:100AB000850010928400B19A80916F0082608093CB
:100AC0006F00E091E401F0E0CF01880F991FE80F7B
:100AD000F91FE154FE4F808180648083E0913201F0
:100AE000F091330182E08083E0912E01F0912F019B
:100AF0001082E0913001F09131018FEC80831092EF
:100B00003A01E0913601F091370186E08083E0916F
:100B10003401F0913501808180618083E09134015E
:100B2000F0913501808188608083E0913401F091FB
:100B30003501808180688083E0913401F091350136
:100B400080818F7D8083C8E8D0E008E512E0B4EBB7
:100B5000CB2ED12CE12CF12C82E00E94B500019724
:100B600089F482E00E94B500019719F40E946E0199
:100B7000F8CF8091000190910101029790930101BB
:100B80008093000184E00E94B500019789F484E01D
:100B90000E94B500019719F40E946E01F8CF809170
:100BA0000001909101010296909301018093000150
:100BB0008090000190900101092C000CAA08BB084C
:100BC000B7FE0EC06DE282E291E00E943C02662711
:100BD0007727CB01681979098A099B094AE003C084
:100BE0004AE0C501B4010E94B50242E050E064E170
:100BF00071E082E291E00E94A50160910001709194
:100C00000101603282E07807DCF577FD06C0653BC4
:100C100071052CF064EB70E002C060E070E0809140
:100C2000E5014E01881A910887FD9394D401AA0F1B
:100C3000BB1FAA0FBB1F4D01BB0FAA08BB088091A9
:100C4000E6019801281B310987FD3395220F331FD8
:100C5000220F331FC901330FAA0BBB0B9C01AD013F
:100C6000281939094A095B09DB010E94A106A7017D
:100C700096010E947706820E931EA41EB51EB40133
:100C80008091E4018C3080F59091E501AE01491B23
:100C9000510997FD5395440F551F440F551F641775
:100CA000750784F09091E6019801291B310997FDA1
:100CB0003395220F331F220F331FAB01261737073F
:100CC0000CF4A90142505109440F551F2FB7F89455
:100CD00090E0FC01EE0FFF1F8E0F9F1FFC01E154FF
:100CE000FE4F528341832FBF0E94AB0235CF052EAA
:100CF00097FB1EF400940E948E0657FD07D00E94B9
:100D0000A90607FC03D04EF40C948E06509540952E
:100D1000309521953F4F4F4F5F4F089590958095A7
:100D2000709561957F4F8F4F9F4F08950E94CB061E
:100D3000A59F900DB49F900DA49F800D911D11242F
:100D40000895B7FF0C9496060E949606821B930B9B
:100D50000895A1E21A2EAA1BBB1BFD010DC0AA1FFC
:100D6000BB1FEE1FFF1FA217B307E407F50720F014
:100D7000A21BB30BE40BF50B661F771F881F991F8F
:100D80001A9469F760957095809590959B01AC01D8
:100D9000BD01CF010895A29FB001B39FC001A39FE1
:100DA000700D811D1124911DB29F700D811D1124A4
:100DB000911D0895991B79E004C0991F961708F0BA
:100DC000961B881F7A95C9F780950895EE0FFF1F2F
:100DD0000590F491E02D099481E090E0F8940C9452
:060DE000F106F894FFCFBC
:100DE6008C00000000003C02A501D3018902040228
:080DF600E201F6010D0A000004
:107E0000112484B714BE81FFF0D085E080938100F7
:107E100082E08093C00088E18093C10086E0809377
:107E2000C20080E18093C4008EE0C9D0259A86E02C
:107E300020E33CEF91E0309385002093840096BBD3
:107E4000B09BFECF1D9AA8958150A9F7CC24DD24C4
:107E500088248394B5E0AB2EA1E19A2EF3E0BF2EE7
:107E6000A2D0813461F49FD0082FAFD0023811F036
:107E7000013811F484E001C083E08DD089C08234E0
:107E800011F484E103C0853419F485E0A6D080C0E4
:107E9000853579F488D0E82EFF2485D0082F10E0AE
:107EA000102F00270E291F29000F111F8ED06801E7
:107EB0006FC0863521F484E090D080E0DECF843638
:107EC00009F040C070D06FD0082F6DD080E0C81688
:107ED00080E7D80618F4F601B7BEE895C0E0D1E017
:107EE00062D089930C17E1F7F0E0CF16F0E7DF06D8
:107EF00018F0F601B7BEE89568D007B600FCFDCFD4
:107F0000A601A0E0B1E02C9130E011968C91119780
:107F100090E0982F8827822B932B1296FA010C0160
:107F200087BEE89511244E5F5F4FF1E0A038BF0790
:107F300051F7F601A7BEE89507B600FCFDCF97BE46
:107F4000E89526C08437B1F42ED02DD0F82E2BD052
:107F50003CD0F601EF2C8F010F5F1F4F84911BD097
:107F6000EA94F801C1F70894C11CD11CFA94CF0C13
:107F7000D11C0EC0853739F428D08EE10CD085E9AC
:107F80000AD08FE07ACF813511F488E018D01DD067
:107F900080E101D065CF982F8091C00085FFFCCF94
:107FA0009093C60008958091C00087FFFCCF809118
:107FB000C00084FD01C0A8958091C6000895E0E648
:107FC000F0E098E1908380830895EDDF803219F02E
:107FD00088E0F5DFFFCF84E1DECF1F93182FE3DFCA
:107FE0001150E9F7F2DF1F91089580E0E8DFEE27F6
:047FF000FF270994CA
:027FFE00040479
:0400000300007E007B
:00000001FF
